{
  "_format": "hh-sol-artifact-1",
  "contractName": "Dwin",
  "sourceName": "contracts/Dwin.sol",
  "abi": [
    {
      "inputs": [],
      "stateMutability": "nonpayable",
      "type": "constructor"
    },
    {
      "anonymous": false,
      "inputs": [
        {
          "indexed": true,
          "internalType": "address",
          "name": "account",
          "type": "address"
        },
        {
          "indexed": true,
          "internalType": "address",
          "name": "operator",
          "type": "address"
        },
        {
          "indexed": false,
          "internalType": "bool",
          "name": "approved",
          "type": "bool"
        }
      ],
      "name": "ApprovalForAll",
      "type": "event"
    },
    {
      "anonymous": false,
      "inputs": [
        {
          "indexed": true,
          "internalType": "address",
          "name": "previousOwner",
          "type": "address"
        },
        {
          "indexed": true,
          "internalType": "address",
          "name": "newOwner",
          "type": "address"
        }
      ],
      "name": "OwnershipTransferred",
      "type": "event"
    },
    {
      "anonymous": false,
      "inputs": [
        {
          "indexed": false,
          "internalType": "uint256",
          "name": "proposalId",
          "type": "uint256"
        },
        {
          "indexed": false,
          "internalType": "string",
          "name": "_description",
          "type": "string"
        }
      ],
      "name": "ProposalCreated",
      "type": "event"
    },
    {
      "anonymous": false,
      "inputs": [
        {
          "indexed": true,
          "internalType": "address",
          "name": "operator",
          "type": "address"
        },
        {
          "indexed": true,
          "internalType": "address",
          "name": "from",
          "type": "address"
        },
        {
          "indexed": true,
          "internalType": "address",
          "name": "to",
          "type": "address"
        },
        {
          "indexed": false,
          "internalType": "uint256[]",
          "name": "ids",
          "type": "uint256[]"
        },
        {
          "indexed": false,
          "internalType": "uint256[]",
          "name": "values",
          "type": "uint256[]"
        }
      ],
      "name": "TransferBatch",
      "type": "event"
    },
    {
      "anonymous": false,
      "inputs": [
        {
          "indexed": true,
          "internalType": "address",
          "name": "operator",
          "type": "address"
        },
        {
          "indexed": true,
          "internalType": "address",
          "name": "from",
          "type": "address"
        },
        {
          "indexed": true,
          "internalType": "address",
          "name": "to",
          "type": "address"
        },
        {
          "indexed": false,
          "internalType": "uint256",
          "name": "id",
          "type": "uint256"
        },
        {
          "indexed": false,
          "internalType": "uint256",
          "name": "value",
          "type": "uint256"
        }
      ],
      "name": "TransferSingle",
      "type": "event"
    },
    {
      "anonymous": false,
      "inputs": [
        {
          "indexed": false,
          "internalType": "string",
          "name": "value",
          "type": "string"
        },
        {
          "indexed": true,
          "internalType": "uint256",
          "name": "id",
          "type": "uint256"
        }
      ],
      "name": "URI",
      "type": "event"
    },
    {
      "inputs": [
        {
          "internalType": "address",
          "name": "account",
          "type": "address"
        },
        {
          "internalType": "uint256",
          "name": "id",
          "type": "uint256"
        }
      ],
      "name": "balanceOf",
      "outputs": [
        {
          "internalType": "uint256",
          "name": "",
          "type": "uint256"
        }
      ],
      "stateMutability": "view",
      "type": "function"
    },
    {
      "inputs": [
        {
          "internalType": "address[]",
          "name": "accounts",
          "type": "address[]"
        },
        {
          "internalType": "uint256[]",
          "name": "ids",
          "type": "uint256[]"
        }
      ],
      "name": "balanceOfBatch",
      "outputs": [
        {
          "internalType": "uint256[]",
          "name": "",
          "type": "uint256[]"
        }
      ],
      "stateMutability": "view",
      "type": "function"
    },
    {
      "inputs": [
        {
          "internalType": "uint256",
          "name": "_proposalId",
          "type": "uint256"
        }
      ],
      "name": "executeProposal",
      "outputs": [],
      "stateMutability": "nonpayable",
      "type": "function"
    },
    {
      "inputs": [
        {
          "internalType": "uint256",
          "name": "proposalId",
          "type": "uint256"
        }
      ],
      "name": "getTotalNetBets",
      "outputs": [
        {
          "internalType": "uint256[2]",
          "name": "",
          "type": "uint256[2]"
        }
      ],
      "stateMutability": "view",
      "type": "function"
    },
    {
      "inputs": [
        {
          "internalType": "address",
          "name": "account",
          "type": "address"
        },
        {
          "internalType": "address",
          "name": "operator",
          "type": "address"
        }
      ],
      "name": "isApprovedForAll",
      "outputs": [
        {
          "internalType": "bool",
          "name": "",
          "type": "bool"
        }
      ],
      "stateMutability": "view",
      "type": "function"
    },
    {
      "inputs": [
        {
          "internalType": "uint256",
          "name": "_proposalId",
          "type": "uint256"
        },
        {
          "internalType": "enum Dwin.Vote",
          "name": "bet",
          "type": "uint8"
        }
      ],
      "name": "makeBet",
      "outputs": [],
      "stateMutability": "payable",
      "type": "function"
    },
    {
      "inputs": [],
      "name": "numProposals",
      "outputs": [
        {
          "internalType": "uint256",
          "name": "",
          "type": "uint256"
        }
      ],
      "stateMutability": "view",
      "type": "function"
    },
    {
      "inputs": [
        {
          "internalType": "string",
          "name": "_description",
          "type": "string"
        }
      ],
      "name": "openMarket",
      "outputs": [],
      "stateMutability": "nonpayable",
      "type": "function"
    },
    {
      "inputs": [],
      "name": "owner",
      "outputs": [
        {
          "internalType": "address",
          "name": "",
          "type": "address"
        }
      ],
      "stateMutability": "view",
      "type": "function"
    },
    {
      "inputs": [
        {
          "internalType": "uint256",
          "name": "",
          "type": "uint256"
        }
      ],
      "name": "proposals",
      "outputs": [
        {
          "internalType": "uint256",
          "name": "id",
          "type": "uint256"
        },
        {
          "internalType": "uint256",
          "name": "tokenYesId",
          "type": "uint256"
        },
        {
          "internalType": "uint256",
          "name": "tokenNoId",
          "type": "uint256"
        },
        {
          "internalType": "string",
          "name": "description",
          "type": "string"
        },
        {
          "internalType": "uint256",
          "name": "deadline",
          "type": "uint256"
        },
        {
          "internalType": "uint256",
          "name": "yayVotes",
          "type": "uint256"
        },
        {
          "internalType": "uint256",
          "name": "nayVotes",
          "type": "uint256"
        },
        {
          "internalType": "enum Dwin.Vote",
          "name": "outcome",
          "type": "uint8"
        }
      ],
      "stateMutability": "view",
      "type": "function"
    },
    {
      "inputs": [],
      "name": "renounceOwnership",
      "outputs": [],
      "stateMutability": "nonpayable",
      "type": "function"
    },
    {
      "inputs": [
        {
          "internalType": "address",
          "name": "from",
          "type": "address"
        },
        {
          "internalType": "address",
          "name": "to",
          "type": "address"
        },
        {
          "internalType": "uint256[]",
          "name": "ids",
          "type": "uint256[]"
        },
        {
          "internalType": "uint256[]",
          "name": "amounts",
          "type": "uint256[]"
        },
        {
          "internalType": "bytes",
          "name": "data",
          "type": "bytes"
        }
      ],
      "name": "safeBatchTransferFrom",
      "outputs": [],
      "stateMutability": "nonpayable",
      "type": "function"
    },
    {
      "inputs": [
        {
          "internalType": "address",
          "name": "from",
          "type": "address"
        },
        {
          "internalType": "address",
          "name": "to",
          "type": "address"
        },
        {
          "internalType": "uint256",
          "name": "id",
          "type": "uint256"
        },
        {
          "internalType": "uint256",
          "name": "amount",
          "type": "uint256"
        },
        {
          "internalType": "bytes",
          "name": "data",
          "type": "bytes"
        }
      ],
      "name": "safeTransferFrom",
      "outputs": [],
      "stateMutability": "nonpayable",
      "type": "function"
    },
    {
      "inputs": [
        {
          "internalType": "address",
          "name": "operator",
          "type": "address"
        },
        {
          "internalType": "bool",
          "name": "approved",
          "type": "bool"
        }
      ],
      "name": "setApprovalForAll",
      "outputs": [],
      "stateMutability": "nonpayable",
      "type": "function"
    },
    {
      "inputs": [
        {
          "internalType": "bytes4",
          "name": "interfaceId",
          "type": "bytes4"
        }
      ],
      "name": "supportsInterface",
      "outputs": [
        {
          "internalType": "bool",
          "name": "",
          "type": "bool"
        }
      ],
      "stateMutability": "view",
      "type": "function"
    },
    {
      "inputs": [
        {
          "internalType": "address",
          "name": "newOwner",
          "type": "address"
        }
      ],
      "name": "transferOwnership",
      "outputs": [],
      "stateMutability": "nonpayable",
      "type": "function"
    },
    {
      "inputs": [],
      "name": "treasury",
      "outputs": [
        {
          "internalType": "uint256",
          "name": "",
          "type": "uint256"
        }
      ],
      "stateMutability": "view",
      "type": "function"
    },
    {
      "inputs": [
        {
          "internalType": "uint256",
          "name": "",
          "type": "uint256"
        }
      ],
      "name": "uri",
      "outputs": [
        {
          "internalType": "string",
          "name": "",
          "type": "string"
        }
      ],
      "stateMutability": "view",
      "type": "function"
    },
    {
      "inputs": [
        {
          "internalType": "uint256",
          "name": "_proposalId",
          "type": "uint256"
        },
        {
          "internalType": "enum Dwin.Vote",
          "name": "vote",
          "type": "uint8"
        }
      ],
      "name": "voteOnProposal",
      "outputs": [],
      "stateMutability": "nonpayable",
      "type": "function"
    },
    {
      "inputs": [
        {
          "internalType": "uint256",
          "name": "proposalId",
          "type": "uint256"
        }
      ],
      "name": "withdraw",
      "outputs": [
        {
          "internalType": "uint256",
          "name": "payoutAfterFee",
          "type": "uint256"
        }
      ],
      "stateMutability": "nonpayable",
      "type": "function"
    },
    {
      "inputs": [],
      "name": "withdrawTreasury",
      "outputs": [],
      "stateMutability": "nonpayable",
      "type": "function"
    }
  ],
  "bytecode": "0x608060405260016005553480156200001657600080fd5b506040518060400160405280600481526020017f4457494e000000000000000000000000000000000000000000000000000000008152506200005e816200008560201b60201c565b506200007f62000073620000a160201b60201c565b620000a960201b60201c565b62000283565b80600290805190602001906200009d9291906200016f565b5050565b600033905090565b6000600360009054906101000a900473ffffffffffffffffffffffffffffffffffffffff16905081600360006101000a81548173ffffffffffffffffffffffffffffffffffffffff021916908373ffffffffffffffffffffffffffffffffffffffff1602179055508173ffffffffffffffffffffffffffffffffffffffff168173ffffffffffffffffffffffffffffffffffffffff167f8be0079c531659141344cd1fd0a4f28419497f9722a3daafe3b4186f6b6457e060405160405180910390a35050565b8280546200017d906200024e565b90600052602060002090601f016020900481019282620001a15760008555620001ed565b82601f10620001bc57805160ff1916838001178555620001ed565b82800160010185558215620001ed579182015b82811115620001ec578251825591602001919060010190620001cf565b5b509050620001fc919062000200565b5090565b5b808211156200021b57600081600090555060010162000201565b5090565b7f4e487b7100000000000000000000000000000000000000000000000000000000600052602260045260246000fd5b600060028204905060018216806200026757607f821691505b6020821081036200027d576200027c6200021f565b5b50919050565b6141d180620002936000396000f3fe6080604052600436106101295760003560e01c806361d027b3116100ab578063e985e9c51161006f578063e985e9c51461040a578063efafb22e14610447578063f242432a14610470578063f281c67e14610499578063f2fde38b146104b5578063ffbe899b146104de57610129565b806361d027b314610337578063715018a6146103625780638da5cb5b14610379578063a22cb465146103a4578063a74ecd96146103cd57610129565b8063166bab95116100f2578063166bab95146102525780632e1a7d4d146102695780632eb2c2d6146102a6578063400e3949146102cf5780634e1273f4146102fa57610129565b8062fdd58e1461012e578063013cf08b1461016b57806301ffc9a7146101af5780630d61b519146101ec5780630e89341c14610215575b600080fd5b34801561013a57600080fd5b5061015560048036038101906101509190612848565b610507565b6040516101629190612897565b60405180910390f35b34801561017757600080fd5b50610192600480360381019061018d91906128b2565b6105cf565b6040516101a69897969594939291906129ef565b60405180910390f35b3480156101bb57600080fd5b506101d660048036038101906101d19190612acc565b6106ac565b6040516101e39190612b14565b60405180910390f35b3480156101f857600080fd5b50610213600480360381019061020e91906128b2565b61078e565b005b34801561022157600080fd5b5061023c600480360381019061023791906128b2565b6107fe565b6040516102499190612b2f565b60405180910390f35b34801561025e57600080fd5b50610267610892565b005b34801561027557600080fd5b50610290600480360381019061028b91906128b2565b610963565b60405161029d9190612897565b60405180910390f35b3480156102b257600080fd5b506102cd60048036038101906102c89190612d4e565b610cb2565b005b3480156102db57600080fd5b506102e4610d53565b6040516102f19190612897565b60405180910390f35b34801561030657600080fd5b50610321600480360381019061031c9190612ee0565b610d59565b60405161032e9190613016565b60405180910390f35b34801561034357600080fd5b5061034c610e72565b6040516103599190612897565b60405180910390f35b34801561036e57600080fd5b50610377610e78565b005b34801561038557600080fd5b5061038e610e8c565b60405161039b9190613047565b60405180910390f35b3480156103b057600080fd5b506103cb60048036038101906103c6919061308e565b610eb6565b005b3480156103d957600080fd5b506103f460048036038101906103ef91906128b2565b610ecc565b6040516104019190613152565b60405180910390f35b34801561041657600080fd5b50610431600480360381019061042c919061316d565b610f2d565b60405161043e9190612b14565b60405180910390f35b34801561045357600080fd5b5061046e600480360381019061046991906131d2565b610fc1565b005b34801561047c57600080fd5b5061049760048036038101906104929190613212565b611077565b005b6104b360048036038101906104ae91906131d2565b611118565b005b3480156104c157600080fd5b506104dc60048036038101906104d791906132a9565b61121b565b005b3480156104ea57600080fd5b5061050560048036038101906105009190613377565b61129e565b005b60008073ffffffffffffffffffffffffffffffffffffffff168373ffffffffffffffffffffffffffffffffffffffff1603610577576040517f08c379a000000000000000000000000000000000000000000000000000000000815260040161056e90613432565b60405180910390fd5b60008083815260200190815260200160002060008473ffffffffffffffffffffffffffffffffffffffff1673ffffffffffffffffffffffffffffffffffffffff16815260200190815260200160002054905092915050565b600460205280600052604060002060009150905080600001549080600101549080600201549080600301805461060490613481565b80601f016020809104026020016040519081016040528092919081815260200182805461063090613481565b801561067d5780601f106106525761010080835404028352916020019161067d565b820191906000526020600020905b81548152906001019060200180831161066057829003601f168201915b5050505050908060040154908060050154908060060154908060090160009054906101000a900460ff16905088565b60007fd9b67a26000000000000000000000000000000000000000000000000000000007bffffffffffffffffffffffffffffffffffffffffffffffffffffffff1916827bffffffffffffffffffffffffffffffffffffffffffffffffffffffff1916148061077757507f0e89341c000000000000000000000000000000000000000000000000000000007bffffffffffffffffffffffffffffffffffffffffffffffffffffffff1916827bffffffffffffffffffffffffffffffffffffffffffffffffffffffff1916145b806107875750610786826113b5565b5b9050919050565b61079661141f565b600060046000838152602001908152602001600020905060008160060154826005015411156107c857600090506107cd565b600190505b808260090160006101000a81548160ff021916908360028111156107f4576107f3612978565b5b0217905550505050565b60606002805461080d90613481565b80601f016020809104026020016040519081016040528092919081815260200182805461083990613481565b80156108865780601f1061085b57610100808354040283529160200191610886565b820191906000526020600020905b81548152906001019060200180831161086957829003601f168201915b50505050509050919050565b61089a61141f565b600060065410156108aa57600080fd5b60003373ffffffffffffffffffffffffffffffffffffffff166006546040516108d2906134e3565b60006040518083038185875af1925050503d806000811461090f576040519150601f19603f3d011682016040523d82523d6000602084013e610914565b606091505b5050905080610958576040517f08c379a000000000000000000000000000000000000000000000000000000000815260040161094f90613544565b60405180910390fd5b600060068190555050565b60008060046000848152602001908152602001600020905060008160090160009054906101000a900460ff1660028111156109a1576109a0612978565b5b6002856109ae9190613593565b6109b891906135ed565b905060006109c63383610507565b9050610a076040518060400160405280600981526020017f42616c616e63653a2000000000000000000000000000000000000000000000008152508261149d565b610a12338383611539565b6000600283610a219190613650565b9050610a626040518060400160405280601181526020017f4f7574636f6d6577696e696e6465783a200000000000000000000000000000008152508261149d565b808460090160009054906101000a900460ff166002811115610a8757610a86612978565b5b03610bbd57610aca6040518060400160405280600581526020017f48656c6c6f00000000000000000000000000000000000000000000000000000081525061177f565b6000846007018260028110610ae257610ae1613681565b5b01548386600701600160028110610afc57610afb613681565b5b015487600701600060028110610b1557610b14613681565b5b0154610b2191906136b0565b610b2b9190613593565b610b359190613706565b9050610b766040518060400160405280600b81526020017f746f74616c5061796f75740000000000000000000000000000000000000000008152508261149d565b60006005606483610b879190613706565b610b919190613593565b90508082610b9f91906135ed565b96508060066000828254610bb391906136b0565b9250508190555050505b60003373ffffffffffffffffffffffffffffffffffffffff1686604051610be3906134e3565b60006040518083038185875af1925050503d8060008114610c20576040519150601f19603f3d011682016040523d82523d6000602084013e610c25565b606091505b5050905080610c69576040517f08c379a0000000000000000000000000000000000000000000000000000000008152600401610c6090613544565b60405180910390fd5b610ca86040518060400160405280601081526020017f7061796f757441667465724665653a20000000000000000000000000000000008152508761149d565b5050505050919050565b610cba611818565b73ffffffffffffffffffffffffffffffffffffffff168573ffffffffffffffffffffffffffffffffffffffff161480610d005750610cff85610cfa611818565b610f2d565b5b610d3f576040517f08c379a0000000000000000000000000000000000000000000000000000000008152600401610d36906137a9565b60405180910390fd5b610d4c8585858585611820565b5050505050565b60055481565b60608151835114610d9f576040517f08c379a0000000000000000000000000000000000000000000000000000000008152600401610d969061383b565b60405180910390fd5b6000835167ffffffffffffffff811115610dbc57610dbb612b56565b5b604051908082528060200260200182016040528015610dea5781602001602082028036833780820191505090505b50905060005b8451811015610e6757610e37858281518110610e0f57610e0e613681565b5b6020026020010151858381518110610e2a57610e29613681565b5b6020026020010151610507565b828281518110610e4a57610e49613681565b5b60200260200101818152505080610e609061385b565b9050610df0565b508091505092915050565b60065481565b610e8061141f565b610e8a6000611b41565b565b6000600360009054906101000a900473ffffffffffffffffffffffffffffffffffffffff16905090565b610ec8610ec1611818565b8383611c07565b5050565b610ed46126db565b60046000838152602001908152602001600020600701600280602002604051908101604052809291908260028015610f21576020028201915b815481526020019060010190808311610f0d575b50505050509050919050565b6000600160008473ffffffffffffffffffffffffffffffffffffffff1673ffffffffffffffffffffffffffffffffffffffff16815260200190815260200160002060008373ffffffffffffffffffffffffffffffffffffffff1673ffffffffffffffffffffffffffffffffffffffff16815260200190815260200160002060009054906101000a900460ff16905092915050565b600280811115610fd457610fd3612978565b5b816002811115610fe757610fe6612978565b5b03610ff157600080fd5b60006004600084815260200190815260200160002090506000600281111561101c5761101b612978565b5b82600281111561102f5761102e612978565b5b0361105557600181600501600082825461104991906136b0565b92505081905550611072565b600181600601600082825461106a91906136b0565b925050819055505b505050565b61107f611818565b73ffffffffffffffffffffffffffffffffffffffff168573ffffffffffffffffffffffffffffffffffffffff1614806110c557506110c4856110bf611818565b610f2d565b5b611104576040517f08c379a00000000000000000000000000000000000000000000000000000000081526004016110fb906137a9565b60405180910390fd5b6111118585858585611d73565b5050505050565b60028081111561112b5761112a612978565b5b81600281111561113e5761113d612978565b5b0361114857600080fd5b60006004600084815260200190815260200160002090506111688361200e565b61118382600281111561117e5761117d612978565b5b61200e565b600082600281111561119857611197612978565b5b6002856111a59190613593565b6111af91906135ed565b90506111ba8161200e565b34826007018460028111156111d2576111d1612978565b5b600281106111e3576111e2613681565b5b0160008282546111f391906136b0565b92505081905550611215338234604051806020016040528060008152506120a7565b50505050565b61122361141f565b600073ffffffffffffffffffffffffffffffffffffffff168173ffffffffffffffffffffffffffffffffffffffff1603611292576040517f08c379a000000000000000000000000000000000000000000000000000000000815260040161128990613915565b60405180910390fd5b61129b81611b41565b50565b60006004600060055481526020019081526020016000209050610258426112c591906136b0565b816004018190555060028160090160006101000a81548160ff021916908360028111156112f5576112f4612978565b5b021790555060055481600001819055508181600301908051906020019061131d9291906126fd565b506002816000015461132f9190613593565b816001018190555060016002826000015461134a9190613593565b61135491906135ed565b81600201819055507f9c770c289ab5bf7e57cb1d23c8ceae993aea46eb64847072fd3d78ca60d3e432816000015483604051611391929190613935565b60405180910390a1600560008154809291906113ac9061385b565b91905055505050565b60007f01ffc9a7000000000000000000000000000000000000000000000000000000007bffffffffffffffffffffffffffffffffffffffffffffffffffffffff1916827bffffffffffffffffffffffffffffffffffffffffffffffffffffffff1916149050919050565b611427611818565b73ffffffffffffffffffffffffffffffffffffffff16611445610e8c565b73ffffffffffffffffffffffffffffffffffffffff161461149b576040517f08c379a0000000000000000000000000000000000000000000000000000000008152600401611492906139b1565b60405180910390fd5b565b61153582826040516024016114b39291906139d1565b6040516020818303038152906040527fb60e72cc000000000000000000000000000000000000000000000000000000007bffffffffffffffffffffffffffffffffffffffffffffffffffffffff19166020820180517bffffffffffffffffffffffffffffffffffffffffffffffffffffffff8381831617835250505050612257565b5050565b600073ffffffffffffffffffffffffffffffffffffffff168373ffffffffffffffffffffffffffffffffffffffff16036115a8576040517f08c379a000000000000000000000000000000000000000000000000000000000815260040161159f90613a73565b60405180910390fd5b60006115b2611818565b905060006115bf84612280565b905060006115cc84612280565b90506115ec838760008585604051806020016040528060008152506122fa565b600080600087815260200190815260200160002060008873ffffffffffffffffffffffffffffffffffffffff1673ffffffffffffffffffffffffffffffffffffffff16815260200190815260200160002054905084811015611683576040517f08c379a000000000000000000000000000000000000000000000000000000000815260040161167a90613b05565b60405180910390fd5b84810360008088815260200190815260200160002060008973ffffffffffffffffffffffffffffffffffffffff1673ffffffffffffffffffffffffffffffffffffffff16815260200190815260200160002081905550600073ffffffffffffffffffffffffffffffffffffffff168773ffffffffffffffffffffffffffffffffffffffff168573ffffffffffffffffffffffffffffffffffffffff167fc3d58168c5ae7397731d063d5bbf3d657854427343f4c083240f7aacaa2d0f628989604051611750929190613b25565b60405180910390a461177684886000868660405180602001604052806000815250612302565b50505050505050565b611815816040516024016117939190612b2f565b6040516020818303038152906040527f41304fac000000000000000000000000000000000000000000000000000000007bffffffffffffffffffffffffffffffffffffffffffffffffffffffff19166020820180517bffffffffffffffffffffffffffffffffffffffffffffffffffffffff8381831617835250505050612257565b50565b600033905090565b8151835114611864576040517f08c379a000000000000000000000000000000000000000000000000000000000815260040161185b90613bc0565b60405180910390fd5b600073ffffffffffffffffffffffffffffffffffffffff168473ffffffffffffffffffffffffffffffffffffffff16036118d3576040517f08c379a00000000000000000000000000000000000000000000000000000000081526004016118ca90613c52565b60405180910390fd5b60006118dd611818565b90506118ed8187878787876122fa565b60005b8451811015611a9e57600085828151811061190e5761190d613681565b5b60200260200101519050600085838151811061192d5761192c613681565b5b60200260200101519050600080600084815260200190815260200160002060008b73ffffffffffffffffffffffffffffffffffffffff1673ffffffffffffffffffffffffffffffffffffffff168152602001908152602001600020549050818110156119ce576040517f08c379a00000000000000000000000000000000000000000000000000000000081526004016119c590613ce4565b60405180910390fd5b81810360008085815260200190815260200160002060008c73ffffffffffffffffffffffffffffffffffffffff1673ffffffffffffffffffffffffffffffffffffffff168152602001908152602001600020819055508160008085815260200190815260200160002060008b73ffffffffffffffffffffffffffffffffffffffff1673ffffffffffffffffffffffffffffffffffffffff1681526020019081526020016000206000828254611a8391906136b0565b9250508190555050505080611a979061385b565b90506118f0565b508473ffffffffffffffffffffffffffffffffffffffff168673ffffffffffffffffffffffffffffffffffffffff168273ffffffffffffffffffffffffffffffffffffffff167f4a39dc06d4c0dbc64b70af90fd698a233a518aa5d07e595d983b8c0526c8f7fb8787604051611b15929190613d04565b60405180910390a4611b2b818787878787612302565b611b3981878787878761230a565b505050505050565b6000600360009054906101000a900473ffffffffffffffffffffffffffffffffffffffff16905081600360006101000a81548173ffffffffffffffffffffffffffffffffffffffff021916908373ffffffffffffffffffffffffffffffffffffffff1602179055508173ffffffffffffffffffffffffffffffffffffffff168173ffffffffffffffffffffffffffffffffffffffff167f8be0079c531659141344cd1fd0a4f28419497f9722a3daafe3b4186f6b6457e060405160405180910390a35050565b8173ffffffffffffffffffffffffffffffffffffffff168373ffffffffffffffffffffffffffffffffffffffff1603611c75576040517f08c379a0000000000000000000000000000000000000000000000000000000008152600401611c6c90613dad565b60405180910390fd5b80600160008573ffffffffffffffffffffffffffffffffffffffff1673ffffffffffffffffffffffffffffffffffffffff16815260200190815260200160002060008473ffffffffffffffffffffffffffffffffffffffff1673ffffffffffffffffffffffffffffffffffffffff16815260200190815260200160002060006101000a81548160ff0219169083151502179055508173ffffffffffffffffffffffffffffffffffffffff168373ffffffffffffffffffffffffffffffffffffffff167f17307eab39ab6107e8899845ad3d59bd9653f200f220920489ca2b5937696c3183604051611d669190612b14565b60405180910390a3505050565b600073ffffffffffffffffffffffffffffffffffffffff168473ffffffffffffffffffffffffffffffffffffffff1603611de2576040517f08c379a0000000000000000000000000000000000000000000000000000000008152600401611dd990613c52565b60405180910390fd5b6000611dec611818565b90506000611df985612280565b90506000611e0685612280565b9050611e168389898585896122fa565b600080600088815260200190815260200160002060008a73ffffffffffffffffffffffffffffffffffffffff1673ffffffffffffffffffffffffffffffffffffffff16815260200190815260200160002054905085811015611ead576040517f08c379a0000000000000000000000000000000000000000000000000000000008152600401611ea490613ce4565b60405180910390fd5b85810360008089815260200190815260200160002060008b73ffffffffffffffffffffffffffffffffffffffff1673ffffffffffffffffffffffffffffffffffffffff168152602001908152602001600020819055508560008089815260200190815260200160002060008a73ffffffffffffffffffffffffffffffffffffffff1673ffffffffffffffffffffffffffffffffffffffff1681526020019081526020016000206000828254611f6291906136b0565b925050819055508773ffffffffffffffffffffffffffffffffffffffff168973ffffffffffffffffffffffffffffffffffffffff168573ffffffffffffffffffffffffffffffffffffffff167fc3d58168c5ae7397731d063d5bbf3d657854427343f4c083240f7aacaa2d0f628a8a604051611fdf929190613b25565b60405180910390a4611ff5848a8a86868a612302565b612003848a8a8a8a8a6124e1565b505050505050505050565b6120a4816040516024016120229190612897565b6040516020818303038152906040527ff82c50f1000000000000000000000000000000000000000000000000000000007bffffffffffffffffffffffffffffffffffffffffffffffffffffffff19166020820180517bffffffffffffffffffffffffffffffffffffffffffffffffffffffff8381831617835250505050612257565b50565b600073ffffffffffffffffffffffffffffffffffffffff168473ffffffffffffffffffffffffffffffffffffffff1603612116576040517f08c379a000000000000000000000000000000000000000000000000000000000815260040161210d90613e3f565b60405180910390fd5b6000612120611818565b9050600061212d85612280565b9050600061213a85612280565b905061214b836000898585896122fa565b8460008088815260200190815260200160002060008973ffffffffffffffffffffffffffffffffffffffff1673ffffffffffffffffffffffffffffffffffffffff16815260200190815260200160002060008282546121aa91906136b0565b925050819055508673ffffffffffffffffffffffffffffffffffffffff16600073ffffffffffffffffffffffffffffffffffffffff168473ffffffffffffffffffffffffffffffffffffffff167fc3d58168c5ae7397731d063d5bbf3d657854427343f4c083240f7aacaa2d0f628989604051612228929190613b25565b60405180910390a461223f83600089858589612302565b61224e836000898989896124e1565b50505050505050565b60008151905060006a636f6e736f6c652e6c6f679050602083016000808483855afa5050505050565b60606000600167ffffffffffffffff81111561229f5761229e612b56565b5b6040519080825280602002602001820160405280156122cd5781602001602082028036833780820191505090505b50905082816000815181106122e5576122e4613681565b5b60200260200101818152505080915050919050565b505050505050565b505050505050565b6123298473ffffffffffffffffffffffffffffffffffffffff166126b8565b156124d9578373ffffffffffffffffffffffffffffffffffffffff1663bc197c8187878686866040518663ffffffff1660e01b815260040161236f959493929190613eb4565b6020604051808303816000875af19250505080156123ab57506040513d601f19601f820116820180604052508101906123a89190613f31565b60015b612450576123b7613f6b565b806308c379a00361241357506123cb613f8d565b806123d65750612415565b806040517f08c379a000000000000000000000000000000000000000000000000000000000815260040161240a9190612b2f565b60405180910390fd5b505b6040517f08c379a00000000000000000000000000000000000000000000000000000000081526004016124479061408f565b60405180910390fd5b63bc197c8160e01b7bffffffffffffffffffffffffffffffffffffffffffffffffffffffff1916817bffffffffffffffffffffffffffffffffffffffffffffffffffffffff1916146124d7576040517f08c379a00000000000000000000000000000000000000000000000000000000081526004016124ce90614121565b60405180910390fd5b505b505050505050565b6125008473ffffffffffffffffffffffffffffffffffffffff166126b8565b156126b0578373ffffffffffffffffffffffffffffffffffffffff1663f23a6e6187878686866040518663ffffffff1660e01b8152600401612546959493929190614141565b6020604051808303816000875af192505050801561258257506040513d601f19601f8201168201806040525081019061257f9190613f31565b60015b6126275761258e613f6b565b806308c379a0036125ea57506125a2613f8d565b806125ad57506125ec565b806040517f08c379a00000000000000000000000000000000000000000000000000000000081526004016125e19190612b2f565b60405180910390fd5b505b6040517f08c379a000000000000000000000000000000000000000000000000000000000815260040161261e9061408f565b60405180910390fd5b63f23a6e6160e01b7bffffffffffffffffffffffffffffffffffffffffffffffffffffffff1916817bffffffffffffffffffffffffffffffffffffffffffffffffffffffff1916146126ae576040517f08c379a00000000000000000000000000000000000000000000000000000000081526004016126a590614121565b60405180910390fd5b505b505050505050565b6000808273ffffffffffffffffffffffffffffffffffffffff163b119050919050565b6040518060400160405280600290602082028036833780820191505090505090565b82805461270990613481565b90600052602060002090601f01602090048101928261272b5760008555612772565b82601f1061274457805160ff1916838001178555612772565b82800160010185558215612772579182015b82811115612771578251825591602001919060010190612756565b5b50905061277f9190612783565b5090565b5b8082111561279c576000816000905550600101612784565b5090565b6000604051905090565b600080fd5b600080fd5b600073ffffffffffffffffffffffffffffffffffffffff82169050919050565b60006127df826127b4565b9050919050565b6127ef816127d4565b81146127fa57600080fd5b50565b60008135905061280c816127e6565b92915050565b6000819050919050565b61282581612812565b811461283057600080fd5b50565b6000813590506128428161281c565b92915050565b6000806040838503121561285f5761285e6127aa565b5b600061286d858286016127fd565b925050602061287e85828601612833565b9150509250929050565b61289181612812565b82525050565b60006020820190506128ac6000830184612888565b92915050565b6000602082840312156128c8576128c76127aa565b5b60006128d684828501612833565b91505092915050565b600081519050919050565b600082825260208201905092915050565b60005b838110156129195780820151818401526020810190506128fe565b83811115612928576000848401525b50505050565b6000601f19601f8301169050919050565b600061294a826128df565b61295481856128ea565b93506129648185602086016128fb565b61296d8161292e565b840191505092915050565b7f4e487b7100000000000000000000000000000000000000000000000000000000600052602160045260246000fd5b600381106129b8576129b7612978565b5b50565b60008190506129c9826129a7565b919050565b60006129d9826129bb565b9050919050565b6129e9816129ce565b82525050565b600061010082019050612a05600083018b612888565b612a12602083018a612888565b612a1f6040830189612888565b8181036060830152612a31818861293f565b9050612a406080830187612888565b612a4d60a0830186612888565b612a5a60c0830185612888565b612a6760e08301846129e0565b9998505050505050505050565b60007fffffffff0000000000000000000000000000000000000000000000000000000082169050919050565b612aa981612a74565b8114612ab457600080fd5b50565b600081359050612ac681612aa0565b92915050565b600060208284031215612ae257612ae16127aa565b5b6000612af084828501612ab7565b91505092915050565b60008115159050919050565b612b0e81612af9565b82525050565b6000602082019050612b296000830184612b05565b92915050565b60006020820190508181036000830152612b49818461293f565b905092915050565b600080fd5b7f4e487b7100000000000000000000000000000000000000000000000000000000600052604160045260246000fd5b612b8e8261292e565b810181811067ffffffffffffffff82111715612bad57612bac612b56565b5b80604052505050565b6000612bc06127a0565b9050612bcc8282612b85565b919050565b600067ffffffffffffffff821115612bec57612beb612b56565b5b602082029050602081019050919050565b600080fd5b6000612c15612c1084612bd1565b612bb6565b90508083825260208201905060208402830185811115612c3857612c37612bfd565b5b835b81811015612c615780612c4d8882612833565b845260208401935050602081019050612c3a565b5050509392505050565b600082601f830112612c8057612c7f612b51565b5b8135612c90848260208601612c02565b91505092915050565b600080fd5b600067ffffffffffffffff821115612cb957612cb8612b56565b5b612cc28261292e565b9050602081019050919050565b82818337600083830152505050565b6000612cf1612cec84612c9e565b612bb6565b905082815260208101848484011115612d0d57612d0c612c99565b5b612d18848285612ccf565b509392505050565b600082601f830112612d3557612d34612b51565b5b8135612d45848260208601612cde565b91505092915050565b600080600080600060a08688031215612d6a57612d696127aa565b5b6000612d78888289016127fd565b9550506020612d89888289016127fd565b945050604086013567ffffffffffffffff811115612daa57612da96127af565b5b612db688828901612c6b565b935050606086013567ffffffffffffffff811115612dd757612dd66127af565b5b612de388828901612c6b565b925050608086013567ffffffffffffffff811115612e0457612e036127af565b5b612e1088828901612d20565b9150509295509295909350565b600067ffffffffffffffff821115612e3857612e37612b56565b5b602082029050602081019050919050565b6000612e5c612e5784612e1d565b612bb6565b90508083825260208201905060208402830185811115612e7f57612e7e612bfd565b5b835b81811015612ea85780612e9488826127fd565b845260208401935050602081019050612e81565b5050509392505050565b600082601f830112612ec757612ec6612b51565b5b8135612ed7848260208601612e49565b91505092915050565b60008060408385031215612ef757612ef66127aa565b5b600083013567ffffffffffffffff811115612f1557612f146127af565b5b612f2185828601612eb2565b925050602083013567ffffffffffffffff811115612f4257612f416127af565b5b612f4e85828601612c6b565b9150509250929050565b600081519050919050565b600082825260208201905092915050565b6000819050602082019050919050565b612f8d81612812565b82525050565b6000612f9f8383612f84565b60208301905092915050565b6000602082019050919050565b6000612fc382612f58565b612fcd8185612f63565b9350612fd883612f74565b8060005b83811015613009578151612ff08882612f93565b9750612ffb83612fab565b925050600181019050612fdc565b5085935050505092915050565b600060208201905081810360008301526130308184612fb8565b905092915050565b613041816127d4565b82525050565b600060208201905061305c6000830184613038565b92915050565b61306b81612af9565b811461307657600080fd5b50565b60008135905061308881613062565b92915050565b600080604083850312156130a5576130a46127aa565b5b60006130b3858286016127fd565b92505060206130c485828601613079565b9150509250929050565b600060029050919050565b600081905092915050565b6000819050919050565b6000602082019050919050565b613104816130ce565b61310e81846130d9565b9250613119826130e4565b8060005b8381101561314a5781516131318782612f93565b965061313c836130ee565b92505060018101905061311d565b505050505050565b600060408201905061316760008301846130fb565b92915050565b60008060408385031215613184576131836127aa565b5b6000613192858286016127fd565b92505060206131a3858286016127fd565b9150509250929050565b600381106131ba57600080fd5b50565b6000813590506131cc816131ad565b92915050565b600080604083850312156131e9576131e86127aa565b5b60006131f785828601612833565b9250506020613208858286016131bd565b9150509250929050565b600080600080600060a0868803121561322e5761322d6127aa565b5b600061323c888289016127fd565b955050602061324d888289016127fd565b945050604061325e88828901612833565b935050606061326f88828901612833565b925050608086013567ffffffffffffffff8111156132905761328f6127af565b5b61329c88828901612d20565b9150509295509295909350565b6000602082840312156132bf576132be6127aa565b5b60006132cd848285016127fd565b91505092915050565b600067ffffffffffffffff8211156132f1576132f0612b56565b5b6132fa8261292e565b9050602081019050919050565b600061331a613315846132d6565b612bb6565b90508281526020810184848401111561333657613335612c99565b5b613341848285612ccf565b509392505050565b600082601f83011261335e5761335d612b51565b5b813561336e848260208601613307565b91505092915050565b60006020828403121561338d5761338c6127aa565b5b600082013567ffffffffffffffff8111156133ab576133aa6127af565b5b6133b784828501613349565b91505092915050565b7f455243313135353a2061646472657373207a65726f206973206e6f742061207660008201527f616c6964206f776e657200000000000000000000000000000000000000000000602082015250565b600061341c602a836128ea565b9150613427826133c0565b604082019050919050565b6000602082019050818103600083015261344b8161340f565b9050919050565b7f4e487b7100000000000000000000000000000000000000000000000000000000600052602260045260246000fd5b6000600282049050600182168061349957607f821691505b6020821081036134ac576134ab613452565b5b50919050565b600081905092915050565b50565b60006134cd6000836134b2565b91506134d8826134bd565b600082019050919050565b60006134ee826134c0565b9150819050919050565b7f4661696c656420746f2077697468647261770000000000000000000000000000600082015250565b600061352e6012836128ea565b9150613539826134f8565b602082019050919050565b6000602082019050818103600083015261355d81613521565b9050919050565b7f4e487b7100000000000000000000000000000000000000000000000000000000600052601160045260246000fd5b600061359e82612812565b91506135a983612812565b9250817fffffffffffffffffffffffffffffffffffffffffffffffffffffffffffffffff04831182151516156135e2576135e1613564565b5b828202905092915050565b60006135f882612812565b915061360383612812565b92508282101561361657613615613564565b5b828203905092915050565b7f4e487b7100000000000000000000000000000000000000000000000000000000600052601260045260246000fd5b600061365b82612812565b915061366683612812565b92508261367657613675613621565b5b828206905092915050565b7f4e487b7100000000000000000000000000000000000000000000000000000000600052603260045260246000fd5b60006136bb82612812565b91506136c683612812565b9250827fffffffffffffffffffffffffffffffffffffffffffffffffffffffffffffffff038211156136fb576136fa613564565b5b828201905092915050565b600061371182612812565b915061371c83612812565b92508261372c5761372b613621565b5b828204905092915050565b7f455243313135353a2063616c6c6572206973206e6f7420746f6b656e206f776e60008201527f6572206e6f7220617070726f7665640000000000000000000000000000000000602082015250565b6000613793602f836128ea565b915061379e82613737565b604082019050919050565b600060208201905081810360008301526137c281613786565b9050919050565b7f455243313135353a206163636f756e747320616e6420696473206c656e67746860008201527f206d69736d617463680000000000000000000000000000000000000000000000602082015250565b60006138256029836128ea565b9150613830826137c9565b604082019050919050565b6000602082019050818103600083015261385481613818565b9050919050565b600061386682612812565b91507fffffffffffffffffffffffffffffffffffffffffffffffffffffffffffffffff820361389857613897613564565b5b600182019050919050565b7f4f776e61626c653a206e6577206f776e657220697320746865207a65726f206160008201527f6464726573730000000000000000000000000000000000000000000000000000602082015250565b60006138ff6026836128ea565b915061390a826138a3565b604082019050919050565b6000602082019050818103600083015261392e816138f2565b9050919050565b600060408201905061394a6000830185612888565b818103602083015261395c818461293f565b90509392505050565b7f4f776e61626c653a2063616c6c6572206973206e6f7420746865206f776e6572600082015250565b600061399b6020836128ea565b91506139a682613965565b602082019050919050565b600060208201905081810360008301526139ca8161398e565b9050919050565b600060408201905081810360008301526139eb818561293f565b90506139fa6020830184612888565b9392505050565b7f455243313135353a206275726e2066726f6d20746865207a65726f206164647260008201527f6573730000000000000000000000000000000000000000000000000000000000602082015250565b6000613a5d6023836128ea565b9150613a6882613a01565b604082019050919050565b60006020820190508181036000830152613a8c81613a50565b9050919050565b7f455243313135353a206275726e20616d6f756e7420657863656564732062616c60008201527f616e636500000000000000000000000000000000000000000000000000000000602082015250565b6000613aef6024836128ea565b9150613afa82613a93565b604082019050919050565b60006020820190508181036000830152613b1e81613ae2565b9050919050565b6000604082019050613b3a6000830185612888565b613b476020830184612888565b9392505050565b7f455243313135353a2069647320616e6420616d6f756e7473206c656e6774682060008201527f6d69736d61746368000000000000000000000000000000000000000000000000602082015250565b6000613baa6028836128ea565b9150613bb582613b4e565b604082019050919050565b60006020820190508181036000830152613bd981613b9d565b9050919050565b7f455243313135353a207472616e7366657220746f20746865207a65726f20616460008201527f6472657373000000000000000000000000000000000000000000000000000000602082015250565b6000613c3c6025836128ea565b9150613c4782613be0565b604082019050919050565b60006020820190508181036000830152613c6b81613c2f565b9050919050565b7f455243313135353a20696e73756666696369656e742062616c616e636520666f60008201527f72207472616e7366657200000000000000000000000000000000000000000000602082015250565b6000613cce602a836128ea565b9150613cd982613c72565b604082019050919050565b60006020820190508181036000830152613cfd81613cc1565b9050919050565b60006040820190508181036000830152613d1e8185612fb8565b90508181036020830152613d328184612fb8565b90509392505050565b7f455243313135353a2073657474696e6720617070726f76616c2073746174757360008201527f20666f722073656c660000000000000000000000000000000000000000000000602082015250565b6000613d976029836128ea565b9150613da282613d3b565b604082019050919050565b60006020820190508181036000830152613dc681613d8a565b9050919050565b7f455243313135353a206d696e7420746f20746865207a65726f2061646472657360008201527f7300000000000000000000000000000000000000000000000000000000000000602082015250565b6000613e296021836128ea565b9150613e3482613dcd565b604082019050919050565b60006020820190508181036000830152613e5881613e1c565b9050919050565b600081519050919050565b600082825260208201905092915050565b6000613e8682613e5f565b613e908185613e6a565b9350613ea08185602086016128fb565b613ea98161292e565b840191505092915050565b600060a082019050613ec96000830188613038565b613ed66020830187613038565b8181036040830152613ee88186612fb8565b90508181036060830152613efc8185612fb8565b90508181036080830152613f108184613e7b565b90509695505050505050565b600081519050613f2b81612aa0565b92915050565b600060208284031215613f4757613f466127aa565b5b6000613f5584828501613f1c565b91505092915050565b60008160e01c9050919050565b600060033d1115613f8a5760046000803e613f87600051613f5e565b90505b90565b600060443d1061401a57613f9f6127a0565b60043d036004823e80513d602482011167ffffffffffffffff82111715613fc757505061401a565b808201805167ffffffffffffffff811115613fe5575050505061401a565b80602083010160043d03850181111561400257505050505061401a565b61401182602001850186612b85565b82955050505050505b90565b7f455243313135353a207472616e7366657220746f206e6f6e204552433131353560008201527f526563656976657220696d706c656d656e746572000000000000000000000000602082015250565b60006140796034836128ea565b91506140848261401d565b604082019050919050565b600060208201905081810360008301526140a88161406c565b9050919050565b7f455243313135353a204552433131353552656365697665722072656a6563746560008201527f6420746f6b656e73000000000000000000000000000000000000000000000000602082015250565b600061410b6028836128ea565b9150614116826140af565b604082019050919050565b6000602082019050818103600083015261413a816140fe565b9050919050565b600060a0820190506141566000830188613038565b6141636020830187613038565b6141706040830186612888565b61417d6060830185612888565b818103608083015261418f8184613e7b565b9050969550505050505056fea264697066735822122052c7dff53b66d4a13d154cf0e1f769f78c81d4b984554448a3dfbd8f288e346964736f6c634300080d0033",
  "linkReferences": {},
  "deployedLinkReferences": {}
}